:020000040800F2
:1000000080080020A9010008793500083D3100086A
:10001000AD3400084D140008813F000800000000C6
:100020000000000000000000000000009F3A0008EF
:10003000AD160008000000009D3A0008A13A000833
:10004000C3010008C3010008C3010008C301000880
:10005000C3010008C3010008C3010008C301000870
:10006000C3010008C3010008C3010008C301000860
:10007000C3010008C3010008C3010008C301000850
:10008000C3010008C3010008C3010008C301000840
:10009000C3010008C3010008C3010008C301000830
:1000A000C3010008213B0008C3010008C301000888
:1000B000C3010008C3010008C3010008C301000810
:1000C000C3010008C3010008C3010008C301000800
:1000D000C3010008C3010008753F0008C301000800
:1000E000C3010008C3010008C301000800F002F8C2
:1000F00000F04AF80AA090E8000C82448344AAF178
:100100000107DA4501D100F03FF8AFF2090EBAE875
:100110000F0013F0010F18BFFB1A43F0010318473B
:10012000E85B0000085C0000103A24BF78C878C182
:10013000FAD8520724BF30C830C144BF04680C60ED
:10014000704700000023002400250026103A28BF35
:1001500078C1FBD8520728BF30C148BF0B60704739
:10016000662904F0D682642900F05480002070478C
:100170001FB500F0C3FB04000020002103F09CFF2A
:10018000E0601FBD10B510BD00F0B8FC1146FFF7D0
:10019000EFFF03F059FF00F0D6FC03B4FFF7F2FFC6
:1001A00003BC00F019FD00000948804709480047DA
:1001B000FEE7FEE7FEE7FEE7FEE7FEE7FEE7FEE717
:1001C000FEE7FEE704480549054A064B7047000074
:1001D0001D3B0008ED000008800200208008002080
:1001E00080040020800400200FB41CB5084B06AA30
:1001F0007B4469460090059800F067FB04460020A8
:10020000694600F075FB20461CBC5DF814FB00003D
:10021000FD0600002DE9F04106460024106875290E
:10022000314616A510D0AFF30080002802DA404214
:1002300013A507E031688A0701D512A502E0490736
:1002400004D511A5012401E0AFF3008000210A22AA
:1002500006F1240709E0B0FBF2FCB0FBF2F302FB6D
:100260001C00303078541846491C0028F3D123462E
:100270002A463046BDE8F04100F0B9B80000000061
:100280002D0000002B000000200000002DE9F047A9
:100290004FF0000A89460446C0F820A02046E168D5
:1002A0008847002876D0252806D0D4E90121904738
:1002B000206A401C2062F1E7E1682046002588475B
:1002C000C4F81CA006460027C4F818A02A2E09D09E
:1002D000304603F07AFE38B304EB8708303EC8F8A6
:1002E000186019E059F8041B204604EB870291615D
:1002F000E1688847012F064618D1E069002820DA16
:1003000025F020051DE0D8F8180000EB800006EB72
:1003100040003038C8F818002046E1688847064693
:1003200003F053FE0028EED1012F0AD02E2E08D163
:100330002046E16888477F1C0646022F45F02005CD
:10034000C4DBA069002803DA404245F00105A06142
:10035000E80701D025F01005B6B1A6F14100192833
:1003600002D8203645F400654A46314620462560CD
:100370004D46FFF7F5FE58B1012806D0ED1D25F0DA
:10038000070000F1080989E704E005F1040985E7A1
:1003900030468AE7206ABDE8F0874FF0000200B5DA
:1003A000134694469646203922BFA0E80C50A0E898
:1003B0000C50B1F12001BFF4F7AF090728BFA0E846
:1003C0000C5048BF0CC05DF804EB890028BF40F812
:1003D000042B08BF704748BF20F8022B11F0804F54
:1003E00018BF00F8012B70477047704770472DE920
:1003F000F0470D4699469246044600F124080168EC
:10040000880604D5E06921F01001216000E0012098
:10041000A84201DD471B00E00027A1697A1902EB21
:100420000900081AA0612078C00602D42046AFF364
:100430000080002608E0D4E901211AF80600904760
:10044000206A401C761C20624E45F4DB2078C006F2
:100450000AD52046AFF3008006E0D4E90121302020
:100460009047206A401C2062381EA7F10107F4DC87
:1004700007E0D4E9012118F805009047206A401CE4
:100480002062281EA5F10105F3DC2046AFF30080B1
:100490002078000602D50220BDE8F0870120FBE7A6
:1004A00070472DE9FF4F0C461E464FF0FF378BB0CB
:1004B000D2E90001DDF860800A908A46C1F30A554E
:1004C00005B93D46002108464FF00000BAF1000F83
:1004D00000F4400005DA00EB80004FF4400101EA2F
:1004E00050004FEA9059B9F1010F00DDB9460A9862
:1004F00050EA4A000ED044F61050A5F2FF354543AD
:100500002F14B8F1000F1ED07542291E1EDDC9F14F
:1005100000021CE0B8F1010F4FF0000001D03021C3
:1005200003E0F24305E02154401CB042FBDB3046BF
:100530000022002121540B99C1F80880C1E9002054
:100540000FB0BDE8F08FBD1B6D1CDEE74A4600DA38
:10055000694206A800F05CFA06AB93E8070003AB1B
:1005600083E8070050460A9900F03DFB8DE807003C
:10057000A0F500501F3800900398002D0ADD42F2CC
:100580001F014A460844002303A90390684600F06F
:10059000A6FD09E0A0F500504A461F38002303A934
:1005A0000390684600F0B0FD8DE807000004000CE1
:1005B00003D04FF0FF30410800E01046B8F1000FC3
:1005C00003D00022009215461EE0751E05D400F0EF
:1005D00099F9303262556D1EF9D5B34601220843B0
:1005E00002D000227F1C04E02078302801D10022B4
:1005F0007F1E002A099784D01DE0112D07DA00F034
:1006000081F9303262556D1C50EA0102F5D1084380
:1006100002D00098C8B10EE00021681E05E0235CFE
:10062000625C63542254401E491C8142F7DBAB4696
:10063000A81B401E0990002004F80B000B98099A93
:10064000C0F80880C0E9002B7AE711264FF00008B7
:1006500057E72DE9F04F88460446D21D22F00701E6
:1006600091B0D1E90001CDE90A0103F08AFC02460C
:100670000B98C00F01D02D2007E02068810701D51D
:100680002B2002E0202101EAC000032A099001D0BA
:10069000072A05DB03464146204600F079F90BE1C5
:1006A0002078800601D5E06900E00620B8F1650FEA
:1006B000814606D0B8F1660F18D0B8F1670F70D137
:1006C00031E00020B9F1110F009001DB112301E0AE
:1006D00009F101030AAA01A90CA8FFF7E2FEDDE96E
:1006E0000C70002609F10105834647E001204B46C6
:1006F00000904FF000470AAA01A90CA8FFF7D1FE0D
:10070000DDE90DB00C995D46002610B909F1010034
:100710000D18B9EB050003D4C0F1FF3609F101054E
:10072000A5EB09002BE0B9F1010F01DA4FF0010947
:100730000020B9F1110F0090484601DD112300E0BF
:1007400003460AAA01A90CA8FFF7ABFEDDE90C706D
:100750004D4600268346207800070AD4AB4500DAD0
:100760005D4601A8012D04DD411911F8011C302955
:1007700007D04F4502DA17F1040F04DA0120824650
:100780000FE06D1EEEE7002F02DCED1B3E4403E0A0
:10079000781CA84200DD7D1CB81B00F1010A4FF057
:1007A00000472078000703D4AA4501DB4FF0FF3A49
:1007B0000021B7F1004F0DF143088DF8431024D00C
:1007C00002202B23002F01DA7F422D230A21021E53
:1007D000A0F1010000DC5FB197FBF1FC97FBF1F2A7
:1007E00001FB1C7C17460CF1300C08F801CDEEE73C
:1007F000A8F1010003702188090501D5452100E019
:100800006521A0F1010800F8011C09980FA9A1EBCE
:100810000807FF1D00B10120411901EBEA70A16931
:100820003844081A401EA0612078C00602D4204631
:10083000AFF30080099828B1D4E901219047206ADC
:10084000401C20622078C00622D52046AFF30080ED
:100850001EE0002E04DBB34502DD01A8805D00E050
:100860003020D4E901219047206A401C2062761C88
:10087000AAF101005FEA000A0AD100F03FF8C0685F
:100880000168405CD4E901219047206A401C206245
:10089000281EA5F10105DCDC07E0D4E9012118F8E8
:1008A000010B9047206A401C2062381EA7F1010707
:1008B000F3DC2046AFF30080032011B041E60000D6
:1008C00001694A1C02610878704700B58FB0CDE914
:1008D00001310021059105497944CDE90310114604
:1008E0006846FFF7D3FC0FB000BD0000E5FFFFFF37
:1008F0000A6802F8010B0A60704700000048704760
:100900004002002030B5B0F10A024FEA900E71F1BA
:1009100000034EEA817EB0EB0E0061EB91014FEADD
:10092000101E4EEA017E10EB0E0041EB11114FEA52
:10093000102E4EEA016E10EB0E0041EB11214FEA32
:10094000104E4EEA014E10EB0E0041EB11414018E3
:1009500041F100014FEAD00040EA41704FEAD10175
:1009600010EB80054FEA810444EA907444EB0104E3
:100970006D1944EB0404521BA3414FF0000348BF20
:100980000A3200D530BD401C41F1000130BD0000ED
:100990002DE9F0411F46044603260168072A01F4A9
:1009A000006004DB08B116A505E016A503E008B158
:1009B00015A500E015A521F010002060A069C01E5B
:1009C000A0610FB1401EA0612046AFF300804FB17F
:1009D000D4E9012138469047206A401C2062C01C9F
:1009E000206206E0206AFAE7D4E9012115F8010B3C
:1009F0009047761EF8D22046AFF30080BDE8F08124
:100A00004E414E006E616E00494E4600696E6600B2
:100A10002DE9F047814616468AB0354878440DC81E
:100A20008DE80D0032487844801C03AC0DC884E882
:100A30000D0041F69B300844372190FBF1F290FB0A
:100A4000F1F5A5F1800501FB12041B3C02D56442BF
:100A5000012000E00020DFF898A080460027FA443B
:100A6000AAF1BE0A0EE0E0070AD03246684607EB5C
:100A7000470101230AEB810100F046FB8DE80700E6
:100A800064107F1C002CEED1194F7F44AE3F19E05B
:100A9000E80715D007EB04100DF1180A90E80E00D6
:100AA0008AE80E00C068F04201D1981908903246D9
:100AB000012306A903A800F027FB03AB83E8070086
:100AC0006D10641C002DE3D14FF0010332466946DE
:100AD000B8F1000F03A802D000F001FB01E000F024
:100AE00013FBC9E90001C9F808200AB0BDE8F08786
:100AF000D052000000487047200200207546FFF7E2
:100B0000F9FFAE4605006946534620F007008546CA
:100B100018B020B5FFF756FBBDE820404FF00006A7
:100B20004FF000074FF000084FF0000B21F00701D5
:100B3000AC46ACE8C009ACE8C009ACE8C009ACE818
:100B4000C0098D46704710B50446AFF300802046BB
:100B5000BDE81040FFF721BB4FF0013C50F8042BDB
:100B600051F8043B9A4221D1A2EB0C03934313EAC0
:100B7000CC1317D150F8042B51F8043B9A4215D1ED
:100B8000A2EB0C03934313EACC130BD150F8042BC4
:100B900051F8043B9A4209D1A2EB0C03934313EAA8
:100BA000CC13DBD04FF00000704700BFD01A01BA61
:100BB000B1FA81F101F0180122FA01F0CB40C1F144
:100BC0002001DBB2C0B2C01A2CFA01F3D11A914352
:100BD00011EAC311E6D1704701491820ABBEFEE708
:100BE0002600020070475FEA400C08BF91F0000F3A
:100BF0004FEA8C234FEAC12243EA51514FEA1C507D
:100C000018BF00F5F0404FEA300018BF41F0004136
:100C10005FEA6C5C00F02980BCF1FF3F08BF40F048
:100C200080407047130C06BF12044FF0100C4FF0B9
:100C3000000C130E04BF12020CF1080C130F04BFBA
:100C400012010CF1040C930F04BF92000CF1020C82
:100C5000D30F04BF52000CF1010C11464FF00002FB
:100C6000A0F11F00A0EB0C00704711F0004F08BF6F
:100C7000704731F000413FF4D5AF0B0C06BF0904BB
:100C80004FF0100C4FF0000C0B0E04BF09020CF1DA
:100C9000080C0B0F04BF09010CF1040C8B0F04BFEF
:100CA00089000CF1020CCB0F04BF49000CF1010CC0
:100CB000CCF12003A0EB0C0022FA03F302FA0CF2B1
:100CC00041EA030100F10100704720F07F4C80EA07
:100CD000030023F07F47ACEB070303F57C5300F0E0
:100CE000004003F1FF032DE980494FEA154B09B499
:100CF0004FEA144325EA0B4E24EA03480FF2042678
:100D000006EB132749083E785FEA320203FB0667C9
:100D1000C7F5000707FB06F64FEA54374FEAD646F9
:100D200006F1020607FB066CCCF1005C4FEA1C479B
:100D30002CEA074C07FB06F40CFB06F504EB154602
:100D40004FEA961634BF00204FF000404FEAD137EB
:100D500006FB07FC4FEA1C4C0CFB0BF7D21B03FBFA
:100D60000CF761EB07010CFB0EF7B0EB074072EBE1
:100D700017420CFB08F734BFA2EB0742B2EB074265
:100D800061EB17414FEA0C444FEA910706FB07FC61
:100D90004FEA1C4C0CFB0BF7B0EBC74072EB573221
:100DA00003FB0CF734BFA2EBC742B2EBC74261EBC7
:100DB00057310CFB0EF7B0EBC70072EB57720CFB10
:100DC00008F734BFA2EBC702B2EBC70261EB577161
:100DD000039F4FEA816141EA921104EBCC044FEA90
:100DE000D1374FEA826206FB07FC42EA90124FEAD3
:100DF00080604FEA1C4C0CFB0BF7D21B03FB0CF77B
:100E000061EB07010CFB0EF7B0EB074072EB1742EA
:100E10000CFB08F734BFA2EB0742B2EB074261EBD1
:100E200017414FEA8C554FEA910704EB9C2406FBCF
:100E300007FC4FEA1C4C0CFB0BF7B0EBC74072EB06
:100E4000573203FB0CF734BFA2EBC742B2EBC742E9
:100E500061EB57310CFB0EF7B0EBC70072EB57722A
:100E60000CFB08F734BFA2EBC702B2EBC70261EB81
:100E7000577115EB4C254FEA816141EA92114FEA17
:100E800082624FEAD13742EA901206FB07FC44F136
:100E900000044FEA80604FEA1C4C0CFB0BF7D21B9E
:100EA00003FB0CF761EB07010CFB0EF7B0EB0740FF
:100EB00072EB17420CFB08F734BFA2EB0742B2EB10
:100EC000074261EB174115EB1C154FEA813141EAEE
:100ED00092414FEA823242EA90424FEA80304FEA32
:100EE0000C7644F1000448EA03434EEA0B484FF005
:100EF000000EB2EB080C71EB030724BF62463946C3
:100F00004EEB0E0E4FF0000B0018524149414BEBD7
:100F10000B0BB2EB080C71EB03077BF1000B24BF4A
:100F2000624639464EEB0E0E4FF0000B0018524150
:100F300049414BEB0B0BB2EB080C71EB03077BF158
:100F4000000B24BF624639464EEB0E0E51EA0207F3
:100F500018BF46F0010616EB0E7655F1000254F16B
:100F6000000103D5BDE88901BDE80088BDE889011D
:100F7000BDE80048B619524141EB0101A3F101035C
:100F8000704780807F7E7D7C7B7A797877767675F6
:100F90007473727171706F6E6E6D6C6C6B6A6A696E
:100FA0006868676666656464636362616160605F08
:100FB0005F5E5E5D5D5C5C5B5B5A5A595958585781
:100FC00057565655555554545353525252515150E9
:100FD00050504F4F4F4E4E4D4D4D4C4C4C4B4B4B3C
:100FE0004A4A4A4949494848484747474746464682
:100FF00045454544444444434343434242424241BD
:101000004141002B9C4630D477002BD01CB54FEAD1
:10101000370703B44FF010004FF01001BAF1000F82
:1010200006D0BCF1000FDCBF40F0080040F0080122
:101030004FF000000FBCBDE810400BF1010BBBF1FD
:10104000010F08BF5FEA170722BF12F1010211F179
:1010500001014FF0004143F1000300F0004043EA7A
:1010600000007047F9D35708D0E746EA064613F167
:10107000400F4FEA16461FDD13F1200FDFBF164366
:101080000A46002120335B42BED0C3F1200746EA66
:10109000064602FA07F74FEA164646EA0706C3F184
:1010A000200722FA03F201FA07F721FA03F14FF0C1
:1010B000000342EA0702A7E746EA020646EA0646B6
:1010C0004FEA164646EA0106BCBF46EA0646360C1B
:1010D0004FF000034FF000024FF0000194E72DE9BC
:1010E000804C9A46934670B491E8380007C831EABC
:1010F000400C48BF34EA430C03D5FFF7E6FDFFF789
:1011000080FFF0BCBDE8008C2DE9804C9A469346E8
:1011100070B491E8380007C810F0804F08BF13F092
:10112000804F03D100F005F8FFF76BFFF0BCBDE87E
:10113000008C20F07F4780EA030023F07F4C07EB10
:101140000C03A3F57C5300F00040A3F1FE0392F0E2
:10115000000F00F0B38095F0000F00F077802DE9CC
:1011600001494FEA11404FEA144621EA004800FBCA
:1011700006FC24EA064708FB06F607FB08F800FB16
:1011800007F718EB06484CEB164C4FEA124B18EBDE
:1011900007484FEA15464CEB174022EA0B4E0BFB73
:1011A00006FC25EA06470EFB06F607FB0EFE0BFBC8
:1011B00007F71EEB064E4CEB164C4FF000061EEBED
:1011C000074E4CEB174B18EB0B0840F1000018EBE7
:1011D0000E0B58EB000840F100008F1A4FF0000191
:1011E0003CBFC943661B14BFB5EB040C00213CBFD8
:1011F000C943F61B4FEA17444EEA8E0E27EA044510
:101200004FEA1C4704FB07622CEA074C05FB07F773
:101210000CFB05F604FB0CFC16EB074642EB1742F1
:1012200016EB0C4642EB1C421BEB060658EB020287
:10123000414146EA9E0601D5BDE80189B6195241F1
:1012400041EB0101A3F10103BDE801894FEA144517
:101250004FEA114724EA054621EA074C05FB07F44B
:1012600006FB07F70CFB06F105FB0CFC11EB074135
:1012700044EB17444FEA124711EB0C4144EB1C447A
:1012800022EA074C05FB07F206FB07F70CFB06F604
:1012900005FB0CFC16EB074642EB174216EB0C461F
:1012A00042EB1C456A1854F1000148BF7047B6195B
:1012B000524141EB0101A3F10103704795F0000F8A
:1012C00037D04FEA11424FEA144721EA024624EA96
:1012D000074C02FB07F106FB07F70CFB06F402FBC9
:1012E0000CFC14EB074441EB17414FEA154714EB94
:1012F0000C4441EB1C4125EA074C02FB07F506FBB9
:1013000007F70CFB06F602FB0CFC16EB074645EB59
:10131000174516EB0C4645EB1C42121951F1000122
:1013200048BF7047B619524141EB0101A3F10103D7
:1013300070474FEA14454FEA114724EA054621EA6F
:10134000074C05FB07F106FB07F70CFB06F24FF015
:10135000000605FB0CFC12EB074241EB174112EBB8
:101360000C4251EB1C4148BF7047921841EB010100
:10137000A3F101037047000070B50446006881685E
:10138000C943C90717D1816821F00101816000F0CC
:10139000E3FD05460AE000BF00F0DEFD401B022829
:1013A00004D920688068C043C00706D020688068E0
:1013B000C043C007F0D0002070BDA06A40F010000C
:1013C000A062E06A40F00100E062012070BD000010
:1013D000F8B500260446009600688168C943C9072D
:1013E0002DD0816841F001018160164816490068DE
:1013F000B0FBF1F000E0401E00900028FBD100F0AF
:10140000ABFD054616E000BF00F0A6FD401B02281C
:1014100010D920688068C043C0070BD0A06A40F094
:101420001000A062E06A40F00100E06284F82460ED
:101430000120F8BD20688068C043C007E4D10020C7
:10144000F8BD00003000002040420F00FEE7000021
:101450002DE9F041324C4FF480763146204600F0C1
:1014600071FD304D4FF4FA67A0B166153146204644
:1014700000F068FDF8B126153146204600F062FD07
:1014800050B3E6143146204600F05CFDA8B30020BE
:10149000BDE8F081384602F09FFD3146204600F05D
:1014A00051FD08B9012028703146204600F04AFD60
:1014B0000028F9D032E0384602F08EFD3146204651
:1014C00000F040FD08B9022028703146204600F0A7
:1014D00039FD0028F9D021E0384602F07DFD314683
:1014E000204600F02FFD08B9032028703146204621
:1014F00000F028FD0028F9D010E0FFE7384602F0A0
:101500006BFD3146204600F01DFD08B9042028700F
:101510003146204600F016FD0028F9D02878B7E7BC
:10152000000C014034000020094808B5816941F0F1
:1015300004018161806900F00400009000F00CF863
:101540000122BDE808408021024800F000BD0000F3
:1015500000100240000801401FB5802000900120CB
:101560000190032003906946014800F0FBFB1FBD7A
:10157000000801402DE9F0410025154E2C460127B9
:101580008021304600F0DEFC0028F9D0282002F04F
:1015900023FD8021304600F0D5FC01280BD0C4F19A
:1015A000070007FA00F08543641CE4B2082CE7D377
:1015B0002846BDE8F0818021304600F0C3FC0128B8
:1015C000F9D0C4F1070007FA00F0C0B20543EBE719
:1015D000000801402DE9FF410446FFF7BDFF324DF1
:1015E00000228021284600F0B2FC122000F0A8FB67
:1015F00001228021284600F0AAFC1E2002F0ECFC0B
:101600008020009000200190012002906946284629
:1016100000F0A8FB8021284600F094FCF0BB80215C
:10162000284600F08FFC0028F9D08021284600F0E1
:1016300089FC0128F9D0FFF79DFF2070FFF79AFF82
:101640006070FFF797FFA070FFF794FFE070FFF75F
:1016500091FF2071FFF780FF01228021284600F0D2
:1016600076FC60782778804607EB870100EB410025
:1016700002F0F6FFA060A678E57806EB860005EBA1
:10168000400002F0EDFFE06007EB0800711908442C
:101690002179C0B2814205D1002000E002E004B00F
:1016A000BDE8F0810120F8E7000801407047000024
:1016B00038B5324C1025607898B101284CD00228FA
:1016C00053D003280CD12EA20221002002F066F98B
:1016D0000095E288032304215FF0370002F04CF804
:1016E00038BD00212BA2084602F058F9E28B0021F8
:1016F000322002F0A1F8208C02F081FE0022274B5C
:1017000002F0F8FC02F04EFE024600215A2002F0E0
:1017100065F823A20221002002F0A8F90095032316
:10172000628B0221502002F027F81FA20421002022
:1017300002F034F900950323A28B0421502002F01B
:101740001BF81CA20621002002F028F903230095B3
:101750000621228B5020C1E719A20221082002F0A5
:101760001DF900950323A288B5E719A202210020E4
:1017700002F014F9009503232289ACE70000002051
:10178000C9E8D6C3BFD5C6F8D6CAC1BFE3D0D6B55F
:1017900000000000CEC2CAAAB6C800000000244063
:1017A000504D325F35000000BFD5C6F8D6CAC1BF64
:1017B00000000000B6FED1F5BBAFCCBC00000000BD
:1017C000C7EBC9E8D6C3CEC2B6C8E3D0D6B50000D1
:1017D000C9E8D6C3B6FED1F5BBAFCCBCE3D0D6B515
:1017E0000000000072B6FEE7F8B50024009490F8FF
:1017F00024202546012A12D0012280F824204A689C
:101800001F23072A0DD20668776B521E02EB820255
:1018100093409F430B6893401F43776319E0022076
:10182000F8BD06680D2A0AD2376BD21F02EB82027E
:1018300093409F430B6893401F43376309E0F76A67
:101840000D3A02EB820293409F430B6893401F4383
:10185000F7620A68072306680A2A0AD3F7680A3A71
:1018600002EB420293409F438B6893401F43F76013
:1018700008E0376902EB420293409F438B68934034
:101880001F4337610A68102A01D0112A20D1124B58
:1018900002689A4217D193681B0219D4936843F4E3
:1018A000000393600968102912D10C490C4A096899
:1018B000B1FBF2F101EB8101490000E0491E00910A
:1018C0000029FBD104E0816A41F0200181620124FA
:1018D00080F824502046F8BD00240140300000204C
:1018E00040420F00806A70470068C06C704700007B
:1018F0002DE9F0414FF0000704003D467ED0A06A7C
:10190000002628B9E66284F82460204600F07EF8BC
:101910002046FFF731FDA16AC90600D420B1A06AB4
:1019200040F01000A06269E0A16A21F4885141F002
:101930000201A1626268E169237B0A4347EA43012D
:101940000A43A1684FF48077B94209D0012907D032
:101950005FF0000194F814C0BCF1010F02D00AE05E
:101960003946F7E7F3B1A36A43F02003A362E36AC1
:1019700043F00103E3622368D3F804C02CF4694CFC
:101980004CEA010CC3F804C021688B68DFF870C012
:1019900003EA0C0313438B60A168B9420BD0012901
:1019A00009D00CE0DFF85CC0A3690CEB43330B43B8
:1019B00043F40061DFE7218A0D05A5F58015216854
:1019C000CB6A23F470032B43CB62216889680E4BEA
:1019D0001940914208D1E662A16A21F0020141F06A
:1019E0000101A162BDE8F081A06A20F0020040F090
:1019F0001000A062E06A40F00100E0620120F1E71F
:101A0000FDF7E1FF00E0FFFFFE0E1FFF00B585B010
:101A10000021009101910291039100680E498842D2
:101A200018D10E48816941F400718161816901F426
:101A300000710491816941F0040181618069694606
:101A400000F00400049070200090032001900448EE
:101A500000F088F905B000BD0024014000100240EC
:101A6000000801402DE9F84300270D460446009781
:101A700000F072FA804620688168C90508D5A06A1E
:101A800040F02000A06284F824700120BDE8F883B3
:101A90004168C90503D4C06A10F4700F2AD002202F
:101AA00000F0F8FA3B490968B1FBF0F620680369D9
:101AB00039490B424FEA61014FEAA1121FD1C368B5
:101AC0004FEA611C13EA0C0F19D103690B4225D1AF
:101AD000C068104222D1142023E0681C0AD02DB126
:101AE00000F03AFAA0EB0800A84203D92068006889
:101AF000800725D5206800688007EED52DE00369B2
:101B00000B4202D1C168114206D0026923490A4240
:101B100006D1C068084203D1542002E0292000E029
:101B2000FC204643009816E0681C11D02DB100F04F
:101B300013FAA0EB0800A8420AD90098B04207D2D5
:101B4000A06A40F00400A06284F8247003209DE79E
:101B50000098401C0090B042E6D321686FF012005C
:101B60000860A06A40F40070A06220688068C0F33A
:101B7000424007280CD1207B50B9A06A20F4807025
:101B8000A062A06AC00403D4A06A40F00100A06271
:101B900000207BE730000020244992244992240051
:101BA00070B5044690F8240001280DD0012084F877
:101BB00024002046FFF70CFC02004FF0000005D087
:101BC00084F82400104670BD022070BDA16A40F266
:101BD0000123994341F48071A1621F4D23681F497D
:101BE000AB4218D10E6816F4702F14D0A66A46F4D2
:101BF0008016A6620E68760505D5A66A26F40056FC
:101C000046F48056A662A66AF6040AD5E66A26F06D
:101C10000606E66206E0A66A26F48016A6625E68FC
:101C2000E9E7E06284F824006FF0020018602068A1
:101C30008368C3F34243072B05D1A84208D1096842
:101C400011F4702F04D0816841F480118160B9E7EC
:101C5000816841F4A001F9E7002801400424014013
:101C600010B590F821100022022905D004218163CB
:101C700080F82020012010BD01680B6823F00E03BE
:101C80000B6001680B6823F001030B6090F8403093
:101C9000C46B012101FA03F3636080F8211080F81E
:101CA0002020104610BD000010B590F8211000242F
:101CB000022903D00421816301243DE001680A6800
:101CC00022F00E020A6001680A6822F001020A602E
:101CD0001A4A0168914201D1012121E0174A1432C8
:101CE000914201D110211BE0144A2832914201D1C6
:101CF000891515E0114A3C32914201D189140FE057
:101D00000E4A5032914202D14FF4803108E00B4A22
:101D10006432914202D14FF4801101E04FF08071A2
:101D2000064A083A5160012180F82110002180F80C
:101D30002010416B01B18847204610BD08000240C9
:101D400070B5044600F008F90546601C02D004484E
:101D50000078044400F000F9401BA042FAD370BDA3
:101D6000240000202DE9F84FDFF8B891002409F194
:101D7000040A0AF1040B23460F270BF1040EC9E0F5
:101D80000125A5402A40AA427DD1674ED1F804C062
:101D9000ACEB0608B44532D014DCBCF1030F3AD0EA
:101DA00009DCBCF1000F2AD0BCF1010F1CD0BCF142
:101DB000020F31D11DE0BCF1110F17D0BCF1120F91
:101DC0002AD119E0B8F5881F19D006DCB8F5803F94
:101DD00015D0B8F5801F1FD111E0B8F5001F0ED047
:101DE000B8F5041F18D10AE0CB6815E0CB681B1DBD
:101DF00012E0CB6808330FE0CB680C330CE08B6843
:101E00002BB1012B4FF0080303D0456104E00423FC
:101E100002E0056100E00023FF2A01D8064601E048
:101E200000F104064FEA840501D9A5F12005D6F892
:101E3000008007FA05FC28EA0C0803FA05F548EAD1
:101E40000508C6F800804D68ED0062D5374DAE69D3
:101E500046F00106AE61AD6924F0030605F0010508
:101E60000095334D06EB050CDCF80850A607360F3D
:101E700007FA06F825EA0805DFF8B880404503D1DF
:101E80004FF0000817E044E0DFF8AC80404502D195
:101E90004FF001080FE0DFF8A480404502D14FF079
:101EA000020808E0DFF89880404502D14FF00308AF
:101EB00001E04FF0040808FA06F848EA0508CCF8F3
:101EC00008804D68D9F80060ED034D4601D51643F2
:101ED00000E096432E604D68DAF80060AD03554689
:101EE00001D5164300E096432E604D68DBF8006094
:101EF000ED025D4601D5164300E096432E604D6825
:101F0000DEF80060AD02754601D5164300E0964349
:101F10002E60641C0D682A46E5407FF431AFBDE8B1
:101F2000F88F000000040140000011100010024072
:101F30000000014000080140000C01400010014079
:101F4000001401408068084000D0012070470AB1A9
:101F5000016170470904FBE7014880687047000091
:101F60002400002002488168027811448160704793
:101F700024000020074810B5016841F010010160FD
:101F8000032000F075F80F2000F006F800F024F8A8
:101F9000002010BD0020024070B50D4D04464FF4E6
:101FA0007A712878B1FBF0F00A490968B1FBF0F0CA
:101FB00000F0C6FB48B9102C07D200222146501E63
:101FC00000F036F800206C6070BD012070BD00008C
:101FD00024000020300000200C4808B5816941F041
:101FE00001018161816901F001010091C16941F044
:101FF0008051C161C06900F0805000900448416880
:1020000021F0E06141F00071416008BD0010024024
:1020100000000140002809DB00F01F02012191406F
:102020004009800000F1E020C0F800117047000076
:10203000F0B40E4B1B680C46C3F30223C3F1070533
:10204000042D00D90425191D072901D2002300E021
:10205000DB1E012606FA05F1491E214099409E40EB
:10206000761E16403143F0BC01F09FBF0CED00E03E
:10207000064900F0070208684FF6FF03184040EADF
:102080000220034A10430860704700000CED00E096
:102090000000FA0510B529A401461DCC86B08DE8D4
:1020A0001D002AA02A4C006804900020012923D09A
:1020B00002293AD010291DD161682268D20119D5B0
:1020C000C1F38342C9031DF8020009D5616804AA5F
:1020D000C1F34041515C1F4AB2FBF1F1484301E0BA
:1020E0001D4948436168490204D440005FF0030180
:1020F000B0FBF1F006B010BD226AC2F30121012944
:1021000003D1920701D5C803F4E7022905D1626A19
:10211000920702D549F64040ECE70329EAD121684D
:102120008903E7D54FF22440E4E700F033F9616812
:10213000C1F38131491C4900DAE7000002030405BC
:10214000060708090A0B0C0D0E0F10100102000003
:102150000010024000127A0000093D002DE9F8430A
:1021600005460078354CC00754D0E0690026C00011
:1021700008D4E06940F08050E061E069012600F099
:10218000805000902E480168C90512D4016880462D
:1021900041F480710160FFF7DFFE074605E000BFF4
:1021A000FFF7DAFEC01B642823D8D8F80000C0056A
:1021B000F6D5206A10F4407021D0A98801F440714E
:1021C00081421CD0206A1F49012220F440700A601D
:1021D00000220A602062C00711D0FFF7BDFE07464B
:1021E00041F2883808E000BFFFF7B6FEC11B414549
:1021F00002D90320BDE8F883206A8007F4D5206A5D
:10220000696820F44070084320621EB1E06920F044
:102210008050E0612878800705D56068A96820F4BF
:102220004040084360602878C00605D56068E968CA
:1022300020F48000084360600020DBE700100240CB
:1022400000700040400442422DE9F0470F4605006F
:1022500061D0434E306800F00700B84209D23068C0
:1022600020F0070038433060306800F00700B842C3
:1022700051D128683B4C810712D5400703D56068CF
:1022800040F4E06060602878000703D5606840F49F
:10229000605060606068A96820F0F00008436060EA
:1022A0002878C00728D06868012810D02168022843
:1022B00010D0890700292EDA616821F0030101435B
:1022C0006160FFF749FE804641F288390DE02168E0
:1022D0008903EFE78901EDE7FFF73EFEA0EB080178
:1022E000494502D90320BDE8F0876068696800F0BD
:1022F0000C00B0EB810FEFD1306800F00700B8425E
:102300000BD9306820F0070038433060306800F0A7
:102310000700B84201D00120E5E72878400705D53D
:102320006068E96820F4E06008436060287800078E
:1023300006D56068296920F4605040EAC1006060F9
:1023400000F038F86168084AC1F30311515CC840D5
:102350000649086006480068FFF71EFE0020C2E735
:102360000020024000100240064800083000002013
:10237000280000200448054900684968044AC1F360
:102380000221515CC840704730000020001002401C
:10239000164800080448054900684968044AC1F322
:1023A000C221515CC840704730000020001002403C
:1023B0001648000812A185B00FC98DE80F0014A0BF
:1023C000144A006804905168134801F00C03042B70
:1023D00010D0082B0ED1C1F38343C9031DF80300AD
:1023E0000AD5516804AAC1F34041515C0A4A5043DE
:1023F000B0FBF1F005B0704708494843FAE7000028
:1024000002030405060708090A0B0C0D0E0F101035
:10241000010200000010024000127A0000093D0095
:102420002DE9F84F040070D02078C04DC00749D086
:102430006868C0F38100012807D06868C0F3810094
:10244000022809D16868C00306D52868800339D5F9
:1024500060680028E7D035E06068B0F5803F0BD0B9
:1024600010B1B0F5A02F11D0286820F4803028607A
:10247000286820F4802002E0286840F4803028603A
:10248000606890B1FFF768FD06460AE0286840F4EE
:1024900080202860F0E700BFFFF75EFD801B642806
:1024A00073D828688003F7D50CE0FFF755FD064682
:1024B00005E000BFFFF750FD801B6428F0D82868B6
:1024C0008003F7D420789A4E80074FF001094FF02F
:1024D000000839D5686810F00C0F07D06868C0F3A1
:1024E0008100022809D16868C00306D428688007E3
:1024F00014D52069012808D110E02069B0B1C6F8D0
:102500000090FFF729FD074605E00AE1FFF724FDEB
:10251000C01B0228C4D828688007F7D528686169DD
:1025200020F0F80040EAC10028600DE0C6F8008005
:10253000FFF712FD074604E0FFF70EFDC01B02285F
:1025400023D828688007F7D4207800072CD579484D
:10255000A169D9B1C0F80090FFF7FEFC074604E07E
:10256000FFF7FAFCC01B02280FD8686A8007F7D56E
:1025700071484FF4FA510068B0FBF1F0009000BFD1
:102580000098411E0091FAD20EE080E0C0F8008071
:10259000FFF7E2FC074604E0FFF7DEFCC01B022861
:1025A00075D8686A8007F7D42078400760D5E86955
:1025B0000027C00008D4E86940F08050E861E8696D
:1025C000012700F0805000905C480168C90513D4D1
:1025D0000168834641F480710160FFF7BDFC8246CB
:1025E00006E000BFFFF7B8FCA0EB0A0064284ED855
:1025F000DBF80000C005F5D5E06801280AD008B175
:10260000052813D0286A20F001002862286A20F0EB
:10261000040002E0286A40F001002862E06841F20C
:10262000883B98B1FFF798FC82460BE0286A40F09F
:1026300004002862EEE700BFFFF78EFCA0EB0A0162
:1026400059455AD8286A8007F6D50CE0FFF784FC74
:10265000824605E0FFF780FCA0EB0A0159454CD803
:10266000286A8007F6D41FB1E86920F08050E8613D
:10267000E06988B36968C1F38101022944D0022866
:10268000C6F8608004D0FFF767FC044638E034E009
:10269000FFF762FC074604E0FFF75EFCC01B022860
:1026A0002BD828688001F7D4206AB0F5803F05D187
:1026B0006868A16820F4003008436860D4E9080124
:1026C0000843696821F4741108436860C6F8609093
:1026D000FFF742FC044606E025E000BFFFF73CFCA4
:1026E000001B022809D828688001F7D51BE000BF2D
:1026F000FFF732FC001B022802D90320BDE8F88F47
:1027000028688001F4D40EE00128F7D06868226AB6
:1027100000F48031914204D1616A00F47010884263
:1027200001D00120EAE70020E8E7000000100240A5
:10273000000042428004424230000020007000400D
:1027400010B5401EB0F1807F01D3012010BD4FF0C5
:10275000E02460610F21601701F027FC0020A061D8
:1027600007202061002010BD7047704770B590F8B9
:102770003C20012A26D0012480F83C40022280F827
:102780003D2003685A689D6822F070060A6832434B
:102790005A600D4B02689A4208D0B2F1804F05D0C2
:1027A0000A4B9A4202D00A4B9A4204D1496825F05A
:1027B00080031943916080F83D40002180F83C106F
:1027C000084670BD022070BD002C0140000400408E
:1027D0000008004010B5040003D094F83D0010B18B
:1027E00007E0012010BD002084F83C00204600F0E6
:1027F0001FF8022084F83D00211D206801F096F9A1
:10280000012084F8460084F83E0084F83F0084F8F4
:10281000400084F8410084F8420084F8430084F8C2
:10282000440084F8450084F83D00002010BD0000FD
:1028300008B500680B49884212D10B48816941F400
:10284000006181618069002200F4006000901146FF
:102850001920FFF7EDFBBDE808401920FFF7DABBB0
:1028600008BD0000002C01400010024090F83D100F
:10287000012901D001207047022180F83D10016834
:10288000CA6842F00102CA6000680B49884208D059
:10289000B0F1804F05D00949884202D008498842EA
:1028A00004D1816801F00701062903D0016841F0D5
:1028B0000101016000207047002C0140000400402D
:1028C0000008004070B5044690F83C00012817D07D
:1028D000012584F83C50022084F83D00206882687D
:1028E00022F0770222F47F4282600868502830D0BC
:1028F0000DDC20284DD005DC98B310283BD148E0F2
:10290000022070BD302844D0402834D139E06028FE
:1029100028D0702806D0B0F5805F2CD0B0F5005FCD
:1029200029D10AE0CB68D1E90121206801F041F901
:102930002068816841F0770109E0CB68D1E9012185
:10294000206801F036F92068816841F48041816097
:1029500011E0CA684968206801F0E0F95021206858
:1029600007E016E0CA684968206801F0E8F96021CC
:10297000206801F028F984F83D50002084F83C00DC
:1029800070BDCA684968206801F0C8F94021206814
:10299000EFE7226801461046EBE7704770B5044642
:1029A000006801694FF00005C943890715D4C16863
:1029B000C943890711D4E91E0161012020772068ED
:1029C00080698007204602D0FFF7E7FF04E000F0AF
:1029D000BFF8204600F062F9257720680169C943F5
:1029E000490717D4C168C943490713D46FF00401DC
:1029F0000161022020772068806910F4407F204622
:102A000002D0FFF7CAFF04E000F0A2F8204600F071
:102A100045F9257720680169C943090716D4C168BB
:102A2000C943090712D46FF008010161042020771F
:102A30002068C0698007204602D0FFF7AEFF04E09F
:102A400000F086F8204600F029F925772068016912
:102A5000C943C90617D4C168C943C90613D46FF066
:102A600010010161082020772068C06910F4407FC0
:102A7000204602D0FFF791FF04E000F069F82046FD
:102A800000F00CF9257720680169C943C90708D10E
:102A9000C168C943C90704D1891E0161204600F0FD
:102AA0004DF920680169C943090609D4C168C943C1
:102AB000090605D46FF0800101612046FFF754FE3E
:102AC00020680169C943490609D4C168C943490658
:102AD00005D46FF040010161204600F057F92068ED
:102AE0000169C94389060BD4C168C943890607D463
:102AF0006FF0200101612046BDE87040FFF735BE50
:102B000070BD000000B585B00021009101910291D7
:102B1000039100680B49884211D10B48816941F04B
:102B2000080181618069694600F008000490012075
:102B300000900220019003900448FFF713F905B0BC
:102B400000BD00000004004000100240000C0140E5
:102B5000704770B5044690F83C000D4601280AD035
:102B6000012084F83C0042B1042A18D0082A2AD057
:102B70000C2A4DD139E0022070BD206801F02CF8FC
:102B80002068816941F0080181612068816921F034
:102B900004018161206881692A69114311E020687C
:102BA00001F042F82068816941F400618161206888
:102BB000816921F480618161206881692A6941EA23
:102BC0000221816124E0206801F05AF82068C1697F
:102BD00041F00801C1612068C16921F00401C161AF
:102BE0002068C1692A69114311E0206801F074F876
:102BF0002068C16941F40061C1612068C16921F4A4
:102C00008061C1612068C1692A6941EA0221C1610C
:102C1000002084F83C0070BD10B5040003D094F887
:102C20003D0010B107E0012010BD002084F83C00F9
:102C3000204600F01FF8022084F83D00211D206886
:102C400000F074FF012084F8460084F83E0084F808
:102C50003F0084F8400084F8410084F8420084F882
:102C6000430084F8440084F8450084F83D000020C7
:102C700010BD000008B500680649884208D1064822
:102C8000C16941F00201C161C06900F00200009019
:102C900008BD000000040040001002407047000022
:102CA00010B50446022249B104290ED0082913D0D8
:102CB00094F84100012816D0012010BD94F83E0080
:102CC0000128F9D184F83E200FE094F83F00012854
:102CD000F2D184F83F2008E094F840000128EBD1BD
:102CE00084F8402001E084F841200122206800F0AF
:102CF00053FF0F492068884203D1426C42F40042DE
:102D000042642068884208D0B0F1804F05D009495C
:102D1000884202D00849884204D1816801F0070145
:102D2000062903D0016841F001010160002010BDB7
:102D3000002C0140000400400008004011490068D8
:102D4000096888421DD1104801228189491C8BB233
:102D500000218381B3F5FA7F01D38181C281038A87
:102D60005B1C9BB20382B3F57A7F01D3018242825E
:102D7000838A5B1C9BB28382B3F5C86F01D38182C7
:102D8000C28270473C01002000000020704770475D
:102D900070470000F8B5026804461068D1685369AE
:102DA00010F00F0F4FF0000553D003F0010601F4AF
:102DB000907737435FD0C20705D0CA0503D5226C90
:102DC00042F001022264420705D5DA0703D0226CE3
:102DD00042F002022264820705D5DA0703D0226C92
:102DE00042F004022264020707D501F020023243B8
:102DF00003D0226C42F008022264226C002A34D0F4
:102E0000800604D5880602D5204600F0CAFF206857
:102E10004069216CC0F38010090700D430B320460C
:102E200000F0A7FF2068416949061BD5416921F0E0
:102E300040014161A06BA8B158494163A06BFEF706
:102E400033FF002811D0A06B416B01B0BDE8F0400A
:102E5000084783060FD58B060DD52046BDE8F84000
:102E600000F09FBF2046FFF793FFF8BD2046FFF715
:102E70008FFF2564F8BD266B2023012E52D1C60694
:102E800050D5CE064ED51068506800905069400667
:102E90002AD5A16B086840680004000CEAD0A68D12
:102EA0008642E7D9E0858869202818D0D06820F4C8
:102EB0008070D0602068416921F001014161206883
:102EC000416921F04001416184F83E30256320686A
:102ED000C16821F01001C160A06BFEF7C1FEA08D9A
:102EE000E18D401A81B219E0A08DE18D401A81B2C6
:102EF000E08D0028BED00029BCD0D06820F49070AE
:102F0000D0602068426922F00102426184F83E30BC
:102F100025632068C26822F01002C2602046FFF7D5
:102F200036FFF8BD05062BD50D0629D594F83D00D2
:102F30002128F6D1A068B0F5805F01D12069B0B139
:102F4000206A411C2162216800784860E08C401EA4
:102F50000004000CE084E4D12068C16821F0800105
:102F6000C1602068C16841F04001C160F8BD206ABD
:102F70000088C0F308005060206A801C2062E5E7EA
:102F80004006F3D54806F1D5D168204621F040012E
:102F9000D16084F83D3000F0D0F8F8BD633D000802
:102FA00070B5040004D094F83D00002510B106E08F
:102FB000012070BD84F83C50204600F023F8242006
:102FC00084F83D002068C16821F40051C1602046AA
:102FD00000F042FF2068016921F4904101612068FE
:102FE000416921F02A0141612068C16841F4005122
:102FF000C1602564202084F83D0084F83E00002054
:1030000070BD000030B585B0002400940194029496
:1030100003940068184988422BD11848C16941F4CB
:103020000031C161C16901F400310491816941F04D
:10303000040181618069124D00F0040004900420B5
:103040000090022001900320039069462846FEF775
:1030500089FE0820CDE90004694628460294FEF75F
:1030600081FE002211462620FEF7E2FF2620FEF711
:10307000D1FF05B030BD0000004400400010024008
:1030800000080140704700002DE9F843044690F81D
:103090003D001F4616460D4620284CD1C5B1BEB195
:1030A00094F83C00012846D0012084F83C004FF001
:1030B0000008C4F84080212084F83D00FEF74CFF52
:1030C000A6848146E684A068B0F5805F03D004E062
:1030D0000120BDE8F883206928B12E465FF0000585
:1030E00084F83C800EE00026FAE78021204600F0BC
:1030F0000FFFA0B9AEB116F8010B21684860E08C53
:10310000401EE084E08C4B464FF000020097002800
:10311000EBD14FF04001204600F0FAFE30B1032021
:10312000D7E735F8020BC0F30800E6E7202084F863
:103130003D000020CDE70220CBE77047FEE700000E
:1031400010B5FEF785F923490028087028D001281A
:103150000CD0022816D0032829D0042820D1002220
:103160004103BDE810401C48FEF7F1BE4878401C02
:10317000C0B24870042801D300204870BDE8104058
:1031800000F0FBB9487840B101280AD002280BD0E2
:10319000032805D1C888401C12E04FF4FA7048811A
:1031A00010BD8888401C0FE00889401C10E048785A
:1031B000012807D0022809D00328F1D1C888401E71
:1031C000C88010BD8888401E888010BD0889401EB8
:1031D000088110BD0000002000080140FEB5002558
:1031E0001C48009501951A49029501608915816076
:1031F000057301240475032606614FF460214560C0
:10320000C0E90641FEF774FB08B1FEF7EBFA0420B3
:103210008DE8310069460F48FEF7E6FA08B1FEF77F
:10322000E1FA052000900220019069460948FEF766
:10323000DBFA08B1FEF7D6FA0620CDE900066946AA
:103240000448FEF7D1FA002801D0FEF7CBFAFEBD04
:10325000002401400C01002070B586B000241848FD
:103260000094019402940394816941F00401816106
:10327000816901F004010491816941F008018161D3
:103280008069104E00F0080048F202050490002208
:1032900029463046FEF75BFE0220CDE9024000954C
:1032A0000125694601953046FEF75CFD4FF47060DC
:1032B0008DE8310069460448FEF754FD06B070BD44
:1032C0000010024000080140000C014010B586B01B
:1032D0000024174800940194029403940494134921
:1032E000059401603F21C0E9011440F2E731C0E9D3
:1032F000031444618461FFF76DFA08B1FEF772FAB6
:103300004FF48050009069460948FFF7DBFA08B196
:10331000FEF768FA049404A905480594FFF726FA15
:10332000002801D0FEF75EFA06B010BD002C014067
:103330003C01002010B58AB0002407941C21684687
:103340000894FDF72AF81648144901603F21C0E9A6
:10335000011444F61F61C0E903148461FFF75CFCAB
:1033600008B1FEF73FFA079407A90D480894FFF744
:10337000FDF908B1FEF736FA6020CDE900040294A9
:103380000822694606480494FFF7E3FB08B1FEF7FC
:1033900029FA0348FFF7B6FB0AB010BD000400404D
:1033A000840100200C4810B50A4901604FF4E13156
:1033B0004160002181600C22C160C0E9041281617A
:1033C000C161FFF7EDFD002803D0BDE81040FEF716
:1033D00009BA10BD00440040CC0100207FB5214C4B
:1033E0000A25E08BA188B0FBF5F088420AD8208B33
:1033F0002189884206D8A08BE188884202D8608B58
:10340000642807D90122D1031748FEF7A0FD40F236
:10341000DC506081608A012822D100206082208CEB
:10342000B0FBF5F5E08B00F0EAFF00220F4B00F057
:1034300061FE228BA38B648BCDE90232CDE900546F
:1034400002460B460AA11748FCF7CEFE04B082B232
:10345000BDE870404FF6FF7312491348FFF714BEE2
:103460007FBD000000000020000801400000244053
:10347000CEC2B6C83A252E3166A1E620CAAAB6C881
:103480003A256420504D322E353A256420BFD5C6EA
:10349000F8D6CAC1BF3A256420434F323A25640D9D
:1034A0000A00000038000020CC010020FEE70000E8
:1034B0002DE9F0412848FEF78DF8274DE86801F026
:1034C000AFF8264CE083A86801F0AAF82084002019
:1034D000A070234D00F0A2FDA17845F82100491C01
:1034E000C8B2A0700328F5D3286800F088FF4FF019
:1034F00066321C4B00F096FF6FF00B0201F03DF9B5
:103500000022194B00F08EFF0022184B00F0F2FD54
:1035100000F048FF6083686800F071FF144E0022DD
:10352000334600F0E7FD134F00223B4600F07AFFE0
:1035300000F038FFA083A86800F061FF0022334646
:1035400000F0D8FD00223B4600F06CFF00F02AFF9F
:103550002083BDE8F0810000100200200000002060
:103560000001002066660A4000408F4000002840AD
:1035700000FEAF4000005940FEE770B5002404F1A2
:10358000B000C0B200F0E8F9002000F0E5F910202A
:1035900000F0E2F90025002000F0EFF96D1CEDB21B
:1035A000802DF8D3641CE4B2082CE8D370BD000071
:1035B00070B5154886B0816941F008018161816963
:1035C00001F008010491816941F00801816180697D
:1035D000012400F0080004904FF48040CDE900047D
:1035E0000A4E032569463046CDE90245FEF7BAFB8F
:1035F000E003CDE9000469463046CDE90245FEF717
:10360000B1FB06B070BD000000100240000C01408C
:1036100070B50122104DD40321462846FEF797FCD1
:103620000322521EFDD20122960331462846FEF7A0
:103630008EFC0222521EFDD2002231462846FEF7A1
:1036400086FC0222521EFDD221462846BDE870406B
:103650000022FEF77CBC0000000C014070B50D4C50
:103660004FF48045002229462046FEF770FC0322D5
:10367000521EFDD20122D1032046FEF768FC022231
:10368000521EFDD229462046BDE870400122FEF7B9
:103690005EBC0000000C014010B5FFF789FFAE20B2
:1036A00000F05AF9002000F057F9102000F054F90A
:1036B000402000F051F9812000F04EF9CF2000F0B9
:1036C0004BF9A12000F048F9C82000F045F9A620E8
:1036D00000F042F9A82000F03FF93F2000F03CF94B
:1036E000D32000F039F9002000F036F9D52000F0A1
:1036F00033F9802000F030F9D92000F02DF9F120C5
:1037000000F02AF9DA2000F027F9122000F024F95D
:10371000DB2000F021F9402000F01EF9202000F00D
:103720001BF9022000F018F98D2000F015F9142083
:1037300000F012F9A42000F00FF9A62000F00CF917
:10374000AF2000F009F90021BDE810400846AFF3B2
:10375000008010B50446B031C8B200F0FDF810206A
:1037600040EA141000F0F8F804F00F00BDE8104033
:1037700040F0010000F0F0B82DE9F0478046002647
:1037800008981D4691468A463446470821E0281B82
:10379000401EC1B20A2000F087FCB9FBF0F00A21FC
:1037A000B0FBF1F201FB120226B9681E844201DA75
:1037B00032B1012607FB0480C0B25146303204E02A
:1037C00007FB0480C0B23022514600F029F9641C86
:1037D000E4B2AC42DBD3BDE8F08700002DE9F8434A
:1037E00004460A25B2FBF5F08846B0FBF5F1164613
:1037F00005FB1102102704F10800C0B20123414665
:103800001E320097FFF7B8FFB6FBF5F005FB10621C
:1038100004F11000C0B2012341461E320097FFF7A9
:10382000ABFF1834E0B24146BDE8F84301A200F016
:103830001DB90000250000002DE9F843044664206E
:10384000B2FBF0F088460A26B0FBF6F1154606FBFF
:10385000110210270123414620461E320097FFF730
:103860008BFFB5FBF6F0B0FBF6F106FB110204F19D
:103870000800C0B2012341461E320097FFF77CFFCB
:1038800004F11000C0B20CA2414600F0EFF8B5FB05
:10389000F6F006FB105204F11800C0B201234146B5
:1038A0001E320097FFF768FF2034E0B24146BDE8C2
:1038B000F84302A200F072B82E000000A1E600005A
:1038C0002DE9F041234D064600244FF480484FF483
:1038D0000047300601D5012200E00022414628467B
:1038E000FEF735FB0220401EFDD201223946284654
:1038F000FEF72DFB0220401EFDD20022394628464D
:10390000FEF725FB0220401EFDD27006641C060E49
:10391000E4B2082CDDD3012241462846FEF717FB0E
:103920000221491EFDD2012239462846FEF70FFB2F
:103930000222521EFDD24FF400512846FEF702FB30
:103940000446002239462846FEF701FB2046BDE822
:10395000F0810000000C014010B50446FFF758FE4E
:103960007820FFF7ADFF0020FFF7AAFF2046FFF702
:10397000A7FFBDE81040FFF771BE10B50446FFF782
:1039800047FE7820FFF79CFF4020FFF799FF204675
:10399000FFF796FFBDE81040FFF760BE2DE9F04746
:1039A000154689460646DFF8748031E0002041461E
:1039B00000EB001311F81340944222D101EB4307AE
:1039C0006C787B78A3421CD149463046FFF7C1FE94
:1039D000002438198078FFF7D0FF641CE4B2102C63
:1039E000F7D309F10100C1B23046FFF7B2FE00245F
:1039F0003819807CFFF7C1FF641CE4B2102CF7D3A8
:103A000003E0401CC0B21E28D2D31036F6B2AD1C63
:103A10002A78002ACAD1BDE8F08700001E480008B5
:103A20002DE9F0410F4680460025A2F12004FFF762
:103A300090FE0D4E05EB0410305CFFF79EFF6D1CF1
:103A4000082DF7D37F1CF9B24046FFF782FE002510
:103A500005EB04103044007AFFF78FFF6D1C082D32
:103A6000F6D3BDE8F0810000824A00082DE9F0415C
:103A700017460E46044600250BE031462046FFF768
:103A8000CFFF0834E4B2782C02D90024B61CF6B279
:103A90006D1C7A5D002AF0D1BDE8F0817047704757
:103AA000FEF760BA30B593B028216846FCF775FC84
:103AB00014210AA8FCF771FC0024022501200F94B0
:103AC000049000951020059012944FF46010CDE9F9
:103AD00008401194109407956846FEF7A1FC08B1C0
:103AE00072B6FEE70F20CDE90A054FF48060CDE9FC
:103AF0000C4002210AA80E94FEF7A6FB08B172B68C
:103B0000FEE74FF4004011900F950FA8FEF726FB3B
:103B1000002801D072B6FEE713B030BD7047000038
:103B20000148FEF73BBF00003C010020F0B50268F1
:103B3000164B174C174D4FF08047984205D0B842AE
:103B400003D0A04201D0A84203D122F070064A68F7
:103B50003243984205D0B84203D0A04201D0A842D7
:103B600003D122F44074CA6822434C6922F08002D7
:103B7000224302608A68C2620A688262984201D166
:103B80000969016301214161F0BD0000002C014081
:103B9000000400400008004010B501F01F0301219F
:103BA000046A99408C430462016A9A40114301629D
:103BB00010BD10B5846842EA032224F47F440A430E
:103BC0002243826010BD826822F070020A4342F0F4
:103BD000070181607047000030B5026A22F00102DF
:103BE0000262026A4368846924F073050C682C43FE
:103BF00022F002058A682A430A4DA8420BD122F01E
:103C00000805CA6823F440732A434D6922F0040270
:103C10001D438B692B4343608461496841630262A1
:103C200030BD0000002C014030B5026A22F01002C5
:103C30000262026A436884690D6824F4E64444EA37
:103C400005248D6822F0200242EA05120B4DA8429D
:103C50000ED1CD6822F0800242EA05124D6923F4AC
:103C6000406343EA85038D6922F0400243EA8503FD
:103C70004360846149688163026230BD002C014069
:103C800030B5026A22F480720262036A4268C46933
:103C900023F4007324F073050C682C438D6843EA09
:103CA00005230C4DA8420ED1CD6823F4006343EAEE
:103CB00005234D6922F4405242EA05128D6923F42E
:103CC000806342EA05124260C4614968C1630362CD
:103CD00030BD0000002C014030B5026A22F4805251
:103CE0000262046A4268C3690D6823F4E64343EA4A
:103CF00005238D6824F4005444EA0534064DA84297
:103D000004D14D6922F4804242EA85124260C361C7
:103D100049680164046230BD002C014010B5036A9B
:103D2000046A24F001040462846924F0F00444EA83
:103D3000021423F00A020A438461026210BD10B526
:103D4000036A23F0100303628369046A23F4704357
:103D500043EA023224F0A00343EA011182610162C6
:103D600010BD10B5406A0021C185C184FFF710F86D
:103D700010BD0168CA6822F49072CA6001684A697D
:103D800022F001024A61016B012904D10168CA686D
:103D900022F01002CA60202180F83E100021016349
:103DA000704708B590F83E10222901D0022008BDC6
:103DB00082684FF480539A4201D1016921B1816A2E
:103DC0009A421BD04AB10AE00268816A5268C2F383
:103DD00008020A80816A891C08E0026972B10268DF
:103DE000526802F07F020A70816A491C8162C18DAB
:103DF000491E0904090CC18503D019E00268526804
:103E0000F1E70168CA6822F02002CA600168CA6846
:103E100022F48072CA6001684A6922F001024A6194
:103E2000202180F83E10016B012903D0FFF72AF909
:103E3000002008BD002101630168CA6822F0100259
:103E4000CA6001680A68D20602D50A68496800910A
:103E5000818DFEF79CFFEBE770B5044600680169B1
:103E6000E26821F44051114301612169A0680843CF
:103E7000616908432168CA6841F20C639A430243AE
:103E8000CA6020684169A26921F44071114341610F
:103E90001E492068884202D1FEF77CFA01E0FEF755
:103EA00069FA00EBC00101EB001260686421800038
:103EB000B2FBF0F3B3FBF1F36FF018067343B2FB00
:103EC000F0F5B2FBF0F605EB8305322303EB0515A5
:103ED000B5FBF1F5B6FBF1F605F0F00505EB0615BF
:103EE000B2FBF0F6B2FBF0F0B0FBF1F06FF01802AD
:103EF000504306EB800003EB0010B0FBF1F02168AB
:103F000000F00F002844886070BD000000380140B8
:103F10002DE9F041984617460E460446069D1DE0E1
:103F2000681C1BD02DB1FEF717F8A0EB0800A842C3
:103F300014D92068C16821F4D071C160206841693A
:103F400021F001014161202084F83D0084F83E0009
:103F5000002084F83C000320BDE8F0812068006860
:103F600036EA000004D00020B842D9D00020F3E7A0
:103F70000120F9E70148FEF70DBF0000CC01002049
:103F8000FEE7490050EAC12018BF04204A0D18BFBF
:103F900040F0010040F2FF72B2EB515F08BF40F009
:103FA0000200012808BF052070470907090E0028F4
:103FB00004DB00F1E02080F80014704700F00F00EF
:103FC00000F1E02080F8141D704730380A2801D233
:103FD00001207047002070472DE9F0414FF0E024A8
:103FE0000546A769FDF7B8FFAD010646BD420BD9EE
:103FF000FDF7B2FFB042FBD0781B00F57A40A16913
:104000008142FCD8BDE8F0817D1BA069A842F9D9A6
:10401000FDF7A2FFB042F8D0F4E7000010B5094860
:10402000FDF7BEFD64210748FDF71CFD0548FDF7BF
:1040300059FC800504D50348FDF756FC80B210BD3D
:10404000002010BD0C010020FDF794FFFFF72AFDB2
:10405000FFF702F9FFF73AF9FFF7A4F9FFF7BEF807
:10406000FFF768F90D48FEF701FC08210C48FEF740
:1040700017FEFFF711FBFFF780FAFDF755FA084D21
:10408000084C00BFFFF75CF8FFF712FAFDF710FBD2
:10409000FFF7A4F929686089C863F3E73C010020B1
:1040A00084010020000000200246012000E050436F
:1040B000491EC9B2FBD2704710B500290AD0087852
:1040C000002807D005487844FCF746FD002801D0B9
:1040D000002010BD0248784410BD0000621C0000A2
:1040E0005A1C000002494FF0000000F014BB00BF52
:1040F0000000F87F2DE9C04130B4DFF8A0C23CEAEF
:10410000111418BF3CEA131400F0EC8081EA030597
:104110001CEA111444EAD57418BF1CEA131500F008
:10412000C780A4EB05044FF0004545EAC12145EAEC
:10413000C32341EA505143EA525304F17F74994238
:1041400004F500344FEAC0204FEAC22208BF904273
:1041500000F09C804FEA13650FF24016765D4FEA3F
:10416000134506FB05F7C7F1807706FB07F74FEA13
:10417000D737A7FB03687642C8F58038A7FB06CE81
:1041800038BFA8F1010807FB08E64FF0000EA6FBB8
:10419000028CE6FB03CEDCF1000CCEF1004E38BF02
:1041A000AEF1010EA6FB0C584FF000074FF00005D2
:1041B000E6FB0E87A1FB08C6A0FB07CE16EB0E069A
:1041C00045F10005E1FB076515F1E04E7EBFA4F562
:1041D00080345FEA46066D4116F1800745F100051F
:1041E0004FEA17274FEA066647EA0567A6F1DE465B
:1041F000B6F1805F4FEA15251FD9384624F0010C2F
:1042000005EBC471BCF1FE6F01EB0C1102D8F0BCE0
:10421000BDE8008124425CBF01F5801E9EEAC47F98
:1042200002D4F0BCBDE80081244238D4F0BCA1F136
:10423000C041BDE8004100F0EDB94FEAD22242EAA8
:1042400043524FEAD323A7FB02864FEAD02040EA2D
:10425000415007FB03661EEA0E0F4FEAD12105FB12
:10426000026658BFA6EB0056B6EB00564FEA520E58
:104270004EEAC37E18EB0E0E56EB530EBDD518EB6F
:1042800002085E417F1C55F10005B6E74FF480152A
:104290004FF000074FF000064FF00008ADE7F0BC0C
:1042A0004FF0000001F1C04101F00041BDE8008184
:1042B00011EA0C1F0CEA131500D00CE013EA0C1FD6
:1042C00000F025804FF00000F0BC81EA030101F00E
:1042D0000041BDE80081F0BCBDE8004181EA030176
:1042E00000F098B9F0BCBDE8004170B500F044F9A9
:1042F000097EFC3E00F007B881EA03014FF00000A0
:1043000001F00041704781EA030100F083B9F0BC7D
:10431000BDE800414FF0000021497047FFFDFBF967
:10432000F7F5F4F2F0EEEDEBE9E8E6E4E3E1E0DEE8
:10433000DDDBDAD8D7D5D4D3D1D0CFCDCCCBCAC85A
:10434000C7C6C5C4C2C1C0BFBEBDBCBBBAB9B8B781
:10435000B6B5B4B3B2B1B0AFAEADACABAAA9A8A874
:10436000A7A6A5A4A3A3A2A1A09F9F9E9D9C9C9B42
:104370009A999998979796959594939392919190ED
:104380008F8F8E8E8D8C8C8B8B8A8989888887877E
:104390008685858484838382828181800000FF07F3
:1043A0000000F87F4FEA1153A3F58063D3F11E0399
:1043B000A8BFD3F1200C08DB4FF0004242EAC12233
:1043C00052EA505232FA03F0704709420BD4102BD4
:1043D000C4BF0020704703F5787CBCF1FF3F05D0D7
:1043E0004FF0FF3070474FF00000704770B500F09D
:1043F000C3F800BF4992248000207047F0E7B0FA6C
:1044000080F310FA03F10AD0C3F11D0303F58063B2
:104410004FEA41504FEA035202EBD12170474FF06F
:1044200000007047DFF848C170B51CEA111E1EBFBE
:104430001CEA13159EEA0C0F95EA0C0F00F06F8032
:1044400081EA030423EA4C134EEAD47E21EA4C119C
:1044500041F4801143F48013AE44A1FB024CA0FB55
:104460000365AEF17F7E361955EB0C05A1FB034CBD
:104470004CF10003A0FB021C16EB0C06654153F146
:104480000003094218BF46F0010613F4007F0BD168
:104490004FEA03314FEA0530340341EA155140EA4F
:1044A00016506FF003020AE04FEAC3214FEAC5201D
:1044B000F40241EA555140EA56506FF0020202EB15
:1044C0002E4201EB025585EACE710AD05FEA440C18
:1044D00018BF24F0004450F1000041F1000120EA2F
:1044E000D47040F2FE7C624500D270BDA84214BF79
:1044F0004FF080444FF04044002E08BF0024BEF12E
:10450000806FA8BFA1F1C041BDE8704080F28280F9
:104510004FF0000001F1C04101F0004170479EEAF8
:104520000C0F0CEA131518BF95EA0C0F06D04FF0CC
:10453000000081EA030E0EF0004170BD00F01CF88F
:104540008900013E00F007B800F009B84FEA430CBB
:104550005FEA5C5C08D081EA030100F05BB84FEAD7
:10456000410C5FEA5C5CF6D14FF0000001497047F6
:104570000000FF070000F87F0EF1020E2EF0030E80
:104580005EF8046B364205D4012A43EB030515F5AA
:10459000001F12D8012841EB010C1CF5001F0CD89C
:1045A0000ED14FEAD17C15F5001F0CEB4C0C0CF131
:1045B000020C08BF4CEBD37C04E04FF0080C01E088
:1045C0004FEAD37C0CEB4C0526FA05F606F00706FD
:1045D000B6F1040C06D20EEB860CBDE870404CF030
:1045E000010C6047DFE80CF0090B02024FF00041BC
:1045F0004FF00000A1F5002170BD194610460128BA
:1046000051EB010418BFD4F5001484BF002001F061
:10461000004170BD0808A0F500114FEA3101704754
:10462000C10DD1F19E0206DB4FEA002343F00043A7
:1046300023FA02F07047004207D54FEA4001B1F17A
:10464000FE4F02D24FF00000704710B500F01BF88B
:1046500049922480002070476FEA200070470000D4
:10466000B0FA80F310FA03F2C3F19D030AD0D90522
:1046700001EB1220530638BF704700F1010008BF5C
:1046800020F0010070470EF1020E2EF0030E5EF8CE
:10469000044B244204D44FEA4102B2F17F4F11D8B7
:1046A0004FEA4003B3F17F4F0CD80ED14FEAD07CD4
:1046B000B2F17F4F0CEB4C0C0CF1020C08BF4CEB31
:1046C000D17C04E04FF0080C01E04FEAD17C0CEB08
:1046D0004C0324FA03F404F00704B4F1040C06D2EA
:1046E0000EEB840CBDE810404CF0010C6047DFE895
:1046F0000CF0070802024FF00040A0F5800010BD4A
:104700000846420018BFD2F1807288BF00F0004016
:1047100010BDFBF79EBF0CF00F03092B08BF08204C
:1047200000F059800A2B0BD0082B18BF704708BF28
:104730001CF0400F0AD04FF000004FF0000170470E
:104740001CF0400F18BF4FF0004070471CF0100FD6
:1047500008D020F0704300F07F4242EAD3014FEAD4
:104760004370704700F0604021F07F4242EA00024F
:1047700001F07F4040EA727070474FF0FF0C4CF43C
:10478000E06C1CEA11531CBF9CEA030C9445C2BFA9
:10479000DA4201EB02517047002B0DD0BCF1000F43
:1047A0000FD0002A01F00041A4BF41F0E04141F0E8
:1047B0007F614FF00000704701F000414FF00000B2
:1047C000704750EA01334FF09B0C18BF4CF0806CDF
:1047D0007FF488AC70471CF4801F11D01CF4E02FCC
:1047E00003D06FEACC31490070474FF04050EFF3EF
:1047F000008222F0704242EA000282F30088704791
:104800004FF00000704700000000000000000102AF
:104810000304060708090000000001020304CEC2D9
:104820001060028C0000FE9292929292FE000000B4
:1048300004047E01407E42427E427E42427E40002F
:10484000CAAA1060028C00FE929292929292FE008E
:10485000000004047E014448507F40407F5048449B
:104860004000A1E6060909E6F80C04020202020271
:10487000041E0000000000071F3020404040404060
:1048800020100000B6C80000FC242424FC252624A7
:10489000FC242424040040308F80844C5525252599
:1048A000554C80808000D6B5008060F80704E4A4F1
:1048B000A4BFA4A4E4040000010000FF40407F4A1C
:1048C0004A4A4A4A7F404000E3D000F80122A0A2B1
:1048D000A222FE22AA3202FE000000FF0010130AEC
:1048E0004B20170C133880FF0000D6B5008060F80D
:1048F0000704E4A4A4BFA4A4E4040000010000FF92
:1049000040407F4A4A4A4A4A7F404000B6FE000083
:10491000080808080808080808080800000010101F
:104920001010101010101010101010101000D1F5F1
:104930000824236AAA2AAA6A2A2A2AEA020200006A
:104940001011151515FF15151511100F3040F80031
:10495000BBAF008060F807000000FF402010080493
:104960000000010000FF000402013F4040404040C1
:104970007800CCBC04E45C44C400809EF0909F901E
:10498000909E8000013F10107F201806914C300F40
:1049900030488400BFD5100C4424140405060404D8
:1049A000142444140C00004040414141417F4141E6
:1049B000414140400000C6F820104C475454545424
:1049C000545454D40404000000000000000000000F
:1049D0000000000F3040F000D6CA0000FE12129214
:1049E000929292FF91919191100080601F80805F60
:1049F0004020100E1010205F8000C1BF202020BE7C
:104A0000AAAAAAAAAAAAAABE20202000008080AF33
:104A1000AAAAAAFFAAAAAAAF80800000C7EB4042B8
:104A2000CC0000445454547F54545444400000007B
:104A30007F201000FF15151555957F000000C9E86F
:104A4000404042CC0040A09E8282829EA020200056
:104A50000000003F908840432C1028464180800091
:104A6000D6C3001715D55557557D555755D515172C
:104A700000004040407F555555555555557F4040A5
:104A800040000000000000000000000000000000E6
:104A90000000000000F800000000000000333000BB
:104AA000000000100C06100C0600000000000000C2
:104AB000000040C07840C0784000043F04043F0438
:104AC0000400007088FC08300000001820FF211E40
:104AD0000000F008F000E018000000211C031E2177
:104AE0001E0000F00888700000001E2123241927F2
:104AF000211010160E000000000000000000000051
:104B00000000000000E01804020000000007182068
:104B1000400000020418E0000000004020180700D8
:104B20000000404080F0804040000202010F01027E
:104B30000200000000F0000000000101011F01015F
:104B40000100000000000000000080B070000000C4
:104B50000000000000000000000000010101010150
:104B600001010000000000000000003030000000E3
:104B700000000000000080601804006018060100BA
:104B8000000000E010080810E000000F10202010C6
:104B90000F00001010F8000000000020203F20202F
:104BA00000000070080808887000003028242221C6
:104BB000300000300888884830000018202020117C
:104BC0000E000000C02010F8000000070424243F5D
:104BD000240000F808888808080000192120201106
:104BE0000E0000E0108888180000000F112020112E
:104BF0000E0000380808C83808000000003F000018
:104C000000000070880808887000001C2221212202
:104C10001C0000E010080810E00000003122221102
:104C20000F00000000C0C000000000000030300095
:104C30000000000000800000000000008060000014
:104C4000000000008040201008000001020408104D
:104C5000200040404040404040000404040404045C
:104C6000040000081020408000000020100804020A
:104C70000100007048080808F0000000003036010C
:104C80000000C030C828E810E000071827242314CB
:104C90000B000000C038E0000000203C2302022787
:104CA000382008F8888888700000203F20202011D4
:104CB0000E00C0300808080838000718202020100F
:104CC000080008F808080810E000203F2020201005
:104CD0000F0008F88888E8081000203F20202320D3
:104CE000180008F88888E8081000203F200003001A
:104CF0000000C03008080838000007182020221ED5
:104D0000020008F808000008F808203F21010121EE
:104D10003F20000808F8080800000020203F20205D
:104D2000000000000808F8080800C08080807F00AC
:104D3000000008F888C028180800203F2001263805
:104D4000200008F8080000000000203F202020205C
:104D5000300008F8F800F8F80800203F003F003F56
:104D6000200008F830C00008F808203F200007188D
:104D70003F00E01008080810E0000F10202020106D
:104D80000F0008F808080808F000203F2101010181
:104D90000000E01008080810E0000F182424385024
:104DA0004F0008F8888888887000203F2000030C96
:104DB000302000708808080838000038202121229F
:104DC0001C00180808F8080818000000203F200000
:104DD000000008F808000008F808001F2020202024
:104DE0001F000878880000C83808000007380E0146
:104DF0000000F80800F80008F800033C0700073C32
:104E00000300081868808068180820302C03032CE1
:104E100030200838C800C83808000000203F2000B3
:104E2000000010080808C838080020382621202073
:104E30001800000000FE020202000000007F404057
:104E40004000000C30C000000000000000010638E7
:104E5000C00000020202FE000000004040407F004F
:104E60000000000004020202040000000000000034
:104E70000000000000000000000080808080808032
:104E8000808000020204000000000000000000001A
:104E9000000000008080808000000019242222226F
:104EA0003F2008F8008080000000003F1120201102
:104EB0000E000000008080800000000E11202020E5
:104EC0001100000000808088F800000E11202010E2
:104ED0003F200000808080800000001F22222222CC
:104EE0001300008080F0888888180020203F202050
:104EF00000000000808080808000006B9494949378
:104F0000600008F8008080800000203F2100002021
:104F10003F2000809898000000000020203F2020C3
:104F20000000000000809898000000C08080807F12
:104F3000000008F8000080808000203F24022D300F
:104F40002000000808F8000000000020203F20207A
:104F500000008080808080808000203F20003F20F3
:104F6000003F8080008080800000203F21000020E2
:104F70003F200000808080800000001F2020202033
:104F80001F00808000808000000080FFA120201191
:104F90000E000000008080808000000E112020A004
:104FA000FF80808080008080800020203F212000C2
:104FB00001000000808080808000003324242424AD
:104FC0001900008080E0808000000000001F202089
:104FD00000008080000000808000001F2020201042
:104FE0003F20808080000080808000010E30080615
:104FF000010080800080008080800F300C030C3026
:105000000F0000808000808080000020312E0E3153
:105010002000808080000080808080818E70180653
:10502000010000808080808080000021302C2221BF
:10503000300000000000807C020200000000003F01
:10504000404000000000FF00000000000000FF00E2
:1050500000000002027C800000000040403F000091
:10506000000000060101020204040000000000002C
:105070000000FFFF0303F3F3F3F3F30303FF000068
:10508000BFBFF3B3B30F0F707003CCCCBFBF3C43B3
:10509000430000CCCC4F4FF37C7C303030307FB3BA
:1050A000B33030800000FFFF03F3F3F3F3F3F303B7
:1050B000FFFFCFCF08080909C9C9C9C8C8CFC0C0F8
:1050C000C9C937C9C9F0F0FEFEC60F0FC1C1380605
:1050D00006CECEF1F10808C10808F6F6CECE30C9EA
:1050E000C9303039C0C00F0F08C9C90909C9C9C8BA
:1050F000CFCF868606067F3F01FEFEE7E76680800B
:1051000001017907077F7FE0E0678381E6E67F9F03
:105110009F1E1E01010606811F1FFFFF606080E0C9
:10512000E0FFFFE004067878678787FFFF1F1F997D
:105130007E7EEFEF606090900FFCFC737393808035
:105140009C9CEF9090131383836F10101F1F8FC0D0
:10515000E090909F9FE3E303F3F390908080731CB3
:105160001CE3E3036F6F1313EC83830F0F9F9F0FF9
:105170009F9F19191E1EF9F9E6E7E70606D90707EA
:105180000101E10707D8D80707D8DEDEE6E6C7D970
:10519000D9272721210101C0E7E7E1E11919C61E3E
:1051A0001EE7E7DE3E3ED8D8DF3F3FDEDE212100AE
:1051B000C7C7F3F36F6FF0F08F6C6C00006CE3E324
:1051C0006F6F90EFEFF3F3FCFC9FEFEF6C6C8010D0
:1051D000108080F0F09090101F1F9C9C0F0F70E0CB
:1051E000E0FFFF9F7C7CEFEF83737383838383E314
:1051F0006F6FF3F33030B1B1B1B0B03030F20303C0
:10520000FCFC7F77738F8F4FCFFDCDCDFEFEB13C81
:105210003CFDFD3D3D8F8F3CCECEF1F1B2B272F13F
:10522000F1C3C3FF8282B3B383FFFE03030F0FCD2D
:105230003232FFFFC0C0DFDFDFDFDFC0C0FF0000B2
:10524000C7C7F8C0C00101F8F8DF0101212101261C
:10525000260707C0C0D9D91EDFDFDFDFF9F900213B
:10526000212121D91919C7C7C13939060626262196
:10527000FEFE000000000000000000000000000032
:10528000000000000000000000000000000000001E
:105290000000000000000000000080C0E070303816
:1052A00018181818183070E0E0C000000000000066
:1052B000000000000000C0F8FEFF1F070100000012
:1052C0000000000000000000030FFFFEF8C0000017
:1052D0000000000000FCFFFFFF03000000000000D2
:1052E0000000000000000000000001FFFFFFFC00C4
:1052F0000000000000FFFFFFFF00000000000000B2
:105300000000000000000000000000FFFFFFFF00A1
:105310000000000000000F7FFFFFE08000000000A1
:10532000000000000000000000E0FEFF7F0F000012
:1053300000000000000000000103070F1E3830705D
:10534000606060606030381C1F0F030100000000C7
:10535000000000000000000000000000000000004D
:10536000000000000000000000000000000000003D
:10537000000000000000000000000000000000002D
:10538000000000000000000000000000000000001D
:10539000000000000000000000808080808080C04D
:1053A000C0E0F0F800000000000000000000000075
:1053B00000000000000000000001010101010103E4
:1053C000FFFFFFFF000000000000000000000000E1
:1053D00000000000000000000000000000000000CD
:1053E000FFFFFFFF000000000000000000000000C1
:1053F00000000000000000000000000000000000AD
:10540000FFFFFFFF000000000000000000000000A0
:10541000000000000000000000000000000000008C
:10542000FFFFFFFF00000000000000000000000080
:1054300000000000000000000060606060607078A4
:105440007F7F7F7F78706060606060000000000098
:10545000000000000000000000000000000000004C
:10546000000000000000000000000000000000003C
:10547000000000000000000000000000000000002C
:10548000000000000000000000000000000000001C
:10549000000000000000000080C0E0E0703038181C
:1054A0001818181818383070F0E0C080000000009C
:1054B000000000000000F8FFFFFFF1C00000000046
:1054C00000000000000000000003FFFFFFFC0000E0
:1054D00000000000000001030303030100000000BE
:1054E00000000000000080C0F0FE7F3F0F010000C0
:1054F000000000000000000000000000000000802C
:10550000C0E070381C0E070301000000000000001E
:105510000000000000000080C0E0F0381C0E07030F
:10552000010000000000000000000000F0F000009A
:1055300000000000007C7E7F7B797878787878782E
:105540007878787878787878787C7E7F7F0000002B
:10555000000000000000000000000000000000004B
:10556000000000000000000000000000000000003B
:10557000000000000000000000000000000000002B
:10558000000000000000000000000000000000001B
:10559000000000000000000080C0603030101818CB
:1055A000181818383870F0E0C080000000000000C3
:1055B000000000000000003E7F7F38000000000077
:1055C0000000000000000007FFFFFFFC00000000DB
:1055D00000000000000000000000000000008080CB
:1055E0008080C0C0E060783E1F0F0701000000000F
:1055F00000000000000000000000000000000101A9
:10560000010101030303070E1C7CF8F0C000000039
:10561000000000000000E0F0F8F8F8F000000000E2
:1056200000000000000000000080FFFFFF7F00007E
:1056300000000000000001070F1F1F38307060607D
:1056400060606060603030381E0F070301000000AA
:10565000000000000000000000000000000000004A
:10566000000000000000000000000000000000003A
:10567000000000000000000000000000000000002A
:10568000000000000000000000000000000000001A
:10569000000000000000000000000000000000000A
:1056A00000000000C0E0F8F8F80000000000000072
:1056B000000000000000000000000000000000C02A
:1056C000F0781E0703FFFFFFFF000000000000004E
:1056D00000000000000000000080C0F0381E07033A
:1056E0000000000000FFFFFFFF00000000000000BE
:1056F0000000000080C0F0381E070100000000001C
:105700000000000000FFFFFFFF000000000000009D
:105710000000000003030303030303030303030365
:105720000303030303FFFFFFFF0303030303030359
:1057300000000000000000000000000000006060A9
:1057400060606060707F7F7F7F706060606060001D
:105750000000000000000000000000000000000049
:105760000000000000000000000000000000000039
:105770000000000000000000000000000000000029
:105780000000000000000000000000000000000019
:10579000000000000000000000F8F87878787878C1
:1057A0007878787878787878787878783800000021
:1057B000000000000000000000FF7F00000000006B
:1057C00000000000000000000000000000000000D9
:1057D0000000000000000000FEFF80E07038381874
:1057E0001C1C1C1C1C3C3C78F8F0E0C000000000B5
:1057F00000000000000000000303030000000000A0
:105800000000000000000000010FFFFFFFF8000093
:10581000000000000000F0F8FCFCFC780000000034
:10582000000000000000000000C0FFFFFF1F00009C
:105830000000000000000103070F1F3830306060D7
:10584000606060606030383C1E0F0703000000009D
:105850000000000000000000000000000000000048
:105860000000000000000000000000000000000038
:105870000000000000000000000000000000000028
:105880000000000000000000000000000000000018
:10589000000000000000000000000080C0E0603058
:1058A0003018181818181838F0F0E0C08000000000
:1058B00000000000000080F0FCFE0F03010000006B
:1058C0000000000000000000070F0F0F070000009D
:1058D0000000000000F0FFFFFF0180C0E0E07070FA
:1058E0003838383838387870F0F0E0C08000000080
:1058F0000000000000FFFFFFFF1E07030100000083
:10590000000000000000000000030FFFFFFEF00099
:105910000000000000033FFFFFF8800000000000CF
:1059200000000000000000000000C0FFFFFF1F009B
:10593000000000000000000003070F1F3C3830701B
:105940006060606060603030381E0F070300000048
:105950000000000000000000000000000000000047
:105960000000000000000000000000000000000037
:105970000000000000000000000000000000000027
:105980000000000000000000000000000000000017
:1059900000000000000000F0F8F8F8F87878787857
:1059A00078787878787878787878F8F878380000A7
:1059B000000000000000383F070100000000000068
:1059C00000000000000080E0781E070100000000D9
:1059D00000000000000000000000000000000000C7
:1059E000000080E0FC7F0F010000000000000000CC
:1059F000000000000000000000000000000000C0E7
:105A0000F8FEFF1F0300000000000000000000007F
:105A100000000000000000000000000000C0FEFFC9
:105A2000FFFFFF0000000000000000000000000079
:105A3000000000000000000000000000003F7F7F29
:105A40007F7F3F0000000000000000000000000019
:105A50000000000000000000000000000000000046
:105A60000000000000000000000000000000000036
:105A70000000000000000000000000000000000026
:105A80000000000000000000000000000000000016
:105A9000000000000000000080C0E0F07030381806
:105AA0001818181818383070F0E0C0800000000096
:105AB000000000000000FCFFFFFF8300000000006A
:105AC00000000000000000000003FFFFFFFC0000DA
:105AD00000000000000001070F1F3F7E7CF8F0F07F
